:100000000C94DB060C9422070C9422070C94220714
:100010000C9422070C9422070C9422070C942207BC
:100020000C9422070C9422070C94EA270C94BC2809
:100030000C942C1B0C9422070C9422070C9422077E
:100040000C9422070C9422070C9422070C9422078C
:100050000C9422070C94A01B0C9422070C942207EA
:100060000C9422070C9422070C9422070C9422076C
:100070000C9422070C9422070C9422070C9422075C
:100080000C9422070C9422070C9422070C9422074C
:100090000C9422070C9422070C9422070C9422073C
:1000A0000C9422070C9422070C942207BA09BC096D
:1000B000C709BE09C009C209C409C609C909CB09D3
:1000C000CD09D809CF09D109D309D509D709DA094A
:1000D0005A105A1094109410D310F310661266122E
:1000E00035116612E511E51158126612661260129A
:1000F000F211F211F211F211F211F211F211F211E8
:10010000F211F211F211F211F211F211F211F211D7
:1001100004121212191220122A12F912F9120B13D8
:100120000B1302130B130B130B13F912F912071312
:100130000B130B13071329295029422A5029422A4D
:100140009C29BF29422A152A242A0A002530313643
:1001500062003A200025303258000A722F632030A6
:100160003132333435363738394142434445460A13
:100170000029001E001F002000210022002300246F
:10018000002500260027002A002B0014001A000872
:1001900000150017001C0018000C0012001300319D
:1001A00000E00004001600070009000A000B000D23
:1001B000000E000F0033003400E1001D001B00069C
:1001C000001900050011001000360037003800E566
:1001D000006C00E300E200CE5C2C00000000002C6C
:1001E00000CF5CE600E700280029001E001F002069
:1001F0000021002200230024002500260027002AD9
:10020000002B0034003600370013001C0009000AE0
:1002100000060015000F003800E00004001200087E
:100220000018000C0007000B001700110016002D2D
:1002300000E100330014000D000E001B000500104B
:10024000001A0019001D00E5006C00E300E200CE7A
:100250005C2C00000000002C00CF5CE600E70028CA
:100260000035000100010001000100010001000152
:1002700000010046004700480001000100010001A4
:1002800000010001005F006000610049004A004B6E
:10029000000100010001000100010001005C005D9F
:1002A000005E004C004D004E000100010001000105
:1002B000000100010059005A005B002A00520001B1
:1002C00000010001000100010001000000000062C7
:1002D000000100500051004F0035003A003B003C47
:1002E000003D0001000100010001002F003000016D
:1002F0000001003E003F00400041000100010001FC
:100300000001002D002E00010001004200430044C6
:1003100000450001000100AE00AC00AB00AD0001E3
:1003200000010001000100010001000100010001C5
:1003300000010001000100010001000100010001B5
:1003400000010000000000010001000100010001A7
:100350000001000100010001000100010001000195
:1003600000010001000100005C010001000100012A
:100370000001000100010001000100010001000175
:10038000003900010001000100D05C01000100D132
:100390005C010001000100010001000100010001F9
:1003A0000001000100010001000100010001000145
:1003B0000001000100010001000100000000000137
:1003C0000001000100010001000A44454255473A7E
:1003D00020656E61626C65642E0A000A0025303269
:1003E0005820006B6579626F6172645F7265706F2F
:1003F00072743A20000A0025303258006B65796229
:100400006F6172645F7365745F6C65643A20004F5E
:100410006E6573686F743A2074696D656F75740AE0
:100420000064656C5F6B65795F6269743A20636133
:100430006E27742064656C3A20253032580A0061BA
:1004400064645F6B65795F6269743A2063616E27EB
:1004500074206164643A20253032580A00290A0069
:100460002575002F002575005D28002564002000FB
:10047000256400200025640020002564007C002500
:10048000303258006D6F7573656B6579205B6274EF
:100490006E7C782079207620685D287265702F61E7
:1004A000636C293A205B006D6B5F776865656C5FF4
:1004B00074696D655F746F5F6D6178203D202564A0
:1004C0000A006D6B5F776865656C5F6D61785F735F
:1004D00070656564203D2025640A006D6B5F74695A
:1004E0006D655F746F5F6D6178203D2025640A0043
:1004F0006D6B5F6D61785F7370656564203D20256D
:10050000640A006D6B5F696E74657276616C203D84
:100510002025640A006D6B5F64656C6179203D2065
:1005200025640A006D6B5F776865656C5F74696D43
:10053000655F746F5F6D6178203D2025640A006DF2
:100540006B5F776865656C5F6D61785F737065651B
:1005500064203D2025640A006D6B5F74696D655FE2
:10056000746F5F6D6178203D2025640A006D6B5FBC
:100570006D61785F7370656564203D2025640A00B5
:100580006D6B5F696E74657276616C203D202564C9
:100590000A006D6B5F64656C6179203D2025640AFB
:1005A000000A00257500363A20776865656C5F742F
:1005B000696D655F746F5F6D61783A20000A002590
:1005C0007500353A20776865656C5F6D61785F739B
:1005D000706565643A20000A00257500343A20747D
:1005E000696D655F746F5F6D61783A20000A002560
:1005F0007500333A206D61785F73706565643A20E9
:10060000000A00257500323A20696E7465727661C1
:100610006C286D73293A20000A00257500313A20B4
:1006200064656C6179282A31306D73293A20000A9B
:10063000092D2056616C756573202D0A004D3E0012
:100640004D25643E20003F0073657420646566613B
:10065000756C740A00433E200077686572652064FB
:10066000656C74613A20637572736F723D25642CFA
:1006700020776865656C3D25640A5365652068745C
:1006800074703A2F2F656E2E77696B697065646997
:10069000612E6F72672F77696B692F4D6F75736568
:1006A0005F6B6579730A000A092D204D6F757365BC
:1006B0006B6579202D0A4553432F713A097175698D
:1006C000740A313A0964656C6179282A31306D7396
:1006D000290A323A09696E74657276616C286D7305
:1006E000290A333A096D61785F73706565640A346D
:1006F0003A0974696D655F746F5F6D61780A353AA8
:1007000009776865656C5F6D61785F7370656564B6
:100710000A363A09776865656C5F74696D655F7460
:100720006F5F6D61780A0A703A097072696E7420A1
:1007300076616C7565730A643A0973657420646543
:100740006661756C74730A75703A092B310A646FAF
:10075000776E3A092D310A706775703A092B31307E
:100760000A7067646F776E3A092D31300A0A737028
:10077000656564203D2064656C7461202A206D618C
:10078000785F7370656564202A20287265706561E2
:1007900074202F2074696D655F746F5F6D617829B7
:1007A0000A003F004D3E2000433E20004C25640AD5
:1007B0000074696D65725F72656164333228293A2D
:1007C000202530346C580A006B65796D61705F6369
:1007D0006F6E6669672E6E6B726F3A2025580A003D
:1007E0006B6579626F6172645F69646C653A20253C
:1007F000580A006B6579626F6172645F70726F7422
:100800006F636F6C3A2025580A00686F73745F6BD2
:100810006579626F6172645F6C65647328293A2040
:1008200025580A000A092D20537461747573202D10
:100830000A004743433A20342E392E322041565283
:100840002D4C4942433A20312E382E3073766E209B
:100850004156525F415243483A20617672350A0050
:100860004F5054494F4E533A204C554641204D4F1E
:100870005553454B45592045585452414B455920F5
:10088000434F4E534F4C4520434F4D4D414E442016
:100890004E4B524F20343039360A004255494C44B1
:1008A0003A2022323031372D30392D31392D303345
:1008B0003A30323A323022202830333A30323A322B
:1008C00032205365702031392032303137290A0007
:1008D0005649443A2030784645454428756E6B6E3B
:1008E0006F776E29205049443A20307836303630C0
:1008F000284D69746F73697329205645523A203028
:1009000078303030310A00444553433A20712E6D1F
:100910002E6B2E206B6579626F617264206669723E
:100920006D7761726520666F72204D69746F7369AF
:10093000730A000A092D2056657273696F6E202DA7
:100940000A000A092D20436F6E736F6C65202D0A13
:100950004553432F713A09717569740A6D3A096DEF
:100960006F7573656B65790A000A092D204D616703
:100970006963202D0A443A094465627567204D6514
:10098000737361676520546F67676C650A583A092D
:100990004D6174726978204465627567204D6F649B
:1009A0006520546F67676C65202D2053686F772032
:1009B0006B65797072657373657320696E206D6104
:1009C0007472697820677269640A4B3A094B6579D9
:1009D000626F61726420446562756720546F676757
:1009E0006C65202D2053686F77206B657970726578
:1009F0007373207265706F72740A4D3A09446562B0
:100A00007567204D6F75736520546F67676C650A55
:100A1000563A0956657273696F6E0A533A095374F0
:100A2000617475730A433A09416374697661746548
:100A300020436F6E736F6C65204D6F64650A46319D
:100A40002D4631303A0953776974636820746F20FA
:100A50004C6179657220302D392028463130203D97
:100A6000204C30290A302D393A095377697463686C
:100A700020746F204C6179657220302D390A4553FE
:100A8000433A0953776974636820746F204C617925
:100A9000657220302028616C7465726E6174652007
:100AA0006B65792031290A47524156453A095377F7
:100AB0006974636820746F204C61796572203020FE
:100AC00028616C7465726E617465206B6579203283
:100AD000290A50415553453A094A756D7020746F83
:100AE00020426F6F746C6F61646572202852657369
:100AF0006574290A4E3A094E4B524F20546F67676E
:100B00006C650A003F004E4B524F3A206F66660AF2
:100B1000004E4B524F3A206F6E0A000A6D6F75738C
:100B2000653A206F66660A000A6D6F7573653A2034
:100B30006F6E0A000A6B6579626F6172643A206FAA
:100B400066660A000A6B6579626F6172643A206FAB
:100B50006E0A000A6D61747269783A206F66660ADF
:100B6000000A6D61747269783A206F6E0A000A6437
:100B7000656275673A206F66660A000A6465627589
:100B8000673A206F6E0A000A0A4A756D70696E67CF
:100B900020746F20626F6F746C6F616465722E2EAB
:100BA0002E2000433E20005B735D004B6579626F31
:100BB0006172642073746172742E0A005B575D0069
:100BC0005B535D005B525D005B445D005B435D0019
:100BD00010034D00690074006F007300690073001A
:100BE0000000100375006E006B006E006F00770050
:100BF0006E0000000403090409028D00050100A035
:100C0000FA0904000001030101000921110100019A
:100C10002240000705810308000A090401000103BE
:100C2000010200092111010001224D000705820384
:100C300008000A0904020001030000000921110153
:100C400000012236000705830308000A0904030097
:100C50000203000000092111010001222200070502
:100C60008403200001070504032000010904040097
:100C700001030000000921110100012239000705CC
:100C800085032000011201100100000008EDFE6044
:100C90006001000102000105010906A10105071913
:100CA000E029E7150025019508750181020508195D
:100CB00001290595057501910295017503910105BD
:100CC00007190029F71500250195F875018102C063
:100CD0000631FF0974A1010975150026FF00952052
:100CE000750881020976150026FF00952075089188
:100CF00002C005010980A10185021601002603003A
:100D00001A81002A8300751095018100C0050C0925
:100D100001A1018503160100269C021A01002A9CEC
:100D200002751095018100C005010902A1010901A8
:100D3000A100050919012905150025019505750171
:100D40008102950175038101050109300931158181
:100D5000257F95027508810609381581257F950143
:100D600075088106050C0A38021581257F950175E5
:100D7000088106C0C005010906A101050719E0297F
:100D8000E715002501950875018102950175088117
:100D9000010508190129059505750191029501754F
:100DA0000391010507190029FF150026FF0095068C
:100DB00075088100C00011241FBECFEFDAE0DEBF4E
:100DC000CDBF04B603FE27C080914202909143023A
:100DD000A0914402B09145028730904BA740B04BA0
:100DE000D1F41092420210924302109244021092E7
:100DF000450214BE84B7877F84BF0FB6F894A895C8
:100E000080916000886180936000109260000FBE46
:100E1000E0E0F8E3099511E0A0E0B1E0EEECF5E5E3
:100E200002C005900D92A633B107D9F722E0A6E3E0
:100E3000B1E001C01D92A234B207E1F70E940D2576
:100E40000C94E52A0C940000FF93EF93E091360197
:100E5000F0913701309709F00995EF91FF910895CE
:100E6000FC018591803011F0EFDFFBCF0895FF2763
:100E7000E0E230E247FF0CC0419597FF09C0EDE288
:100E80006095709580959095611D711D811D911DD6
:100E900027FF02C0219530E350E2AA27660F771F93
:100EA000881F991FAA1FA41710F0A41B63955A95B9
:100EB000A9F7AA3008F0A95FA05DAF93F39561157B
:100EC00071058105910541F7ED3211F4EF93F3952A
:100ED000F21718F43F93F395FBCF8F91B5DFFA9596
:100EE000E1F70895E991F9918591803021F08532FB
:100EF00019F0AADFF9CF089520E0E8945591553212
:100F0000C1F3503311F4689455915A3348F4505357
:100F100090F3220F022E220F220F200D250FF4CF67
:100F20000EF4219589919991533619F3533729F18C
:100F3000533559F1BC0188279927E8945C3621F490
:100F40008991999168945591543639F446EF7EF021
:100F500077FF0DC08FEF9FEF0AC055374AE039F099
:100F6000583540E121F0523642E009F00895FF93F0
:100F7000EF937DDFEF91FF91B7CFFF93EF93FC01EC
:100F800081918030B9F360DFFBCFFF93EF9368DF8F
:100F9000F1CFDF93CF93CDB7DEB72596A3DFCF9107
:100FA000DF91089508950C94BC0ACF93DF93CDB7D9
:100FB000DEB72B970FB6F894DEBF0FBECDBF1092F1
:100FC000CC001092CD0088E18093C90086E0809328
:100FD000CA0083E78093CE00FE0131968BE0DF01EB
:100FE0001D928A95E9F7DF0140E050E0BA018BE0FD
:100FF0008E0F9091C80097FD0AC04F5F5F4F6F4FF3
:101000007F4F413197E259076105710590F3909147
:10101000CE009D938A13EDCF8B85803E91F4A8E39B
:10102000B1E09E01255F3F4F818140E4849FC00174
:1010300011244081842B8D939D933296E217F30700
:1010400099F70E94BE0A81E02B960FB6F894DEBF96
:101050000FBECDBFDF91CF910895E82FF0E0EE0FE6
:10106000FF1FE85CFE4F808191810895CF92DF924F
:10107000EF92FF920F931F93CF93DF938AE591E056
:101080000E94300788E3E82E81E0F82EC0E0D0E02F
:1010900095E5C92E91E0D92E0CE411E0DF93CF93B2
:1010A000DF92CF920E94C90782E591E00E9430074B
:1010B000F701819191917F010E94F2199F938F9383
:1010C0001F930F930E94C9078AE491E00E943007A2
:1010D00021968DB79EB708960FB6F8949EBF0FBEA7
:1010E0008DBFC530D105D1F6DF91CF911F910F9102
:1010F000FF90EF90DF90CF9008951092CC00109267
:10110000CD0088E18093C90086E08093CA000895ED
:10111000519A599A80B3806380BB81B3806381BB4D
:1011200008950E94D2070E947D080C9488080C94B0
:10113000D3080895CF93FB018F3C2CE59207D1F0A3
:1011400030F48E3C9C4559F5C28182E015C0803D4B
:101150002CE5920741F0813D9C4509F5C281CC23E5
:10116000F9F080E004C0C281CC23D1F081E00E947C
:10117000680A0BC0C28183E0CC2349F00E940D179E
:1011800044E063E082E00E947C0AC0E009C00E9463
:101190002E1744E063E082E00E947C0A01C0C1E0B7
:1011A0008C2FCF9108956091C9017091CA018091EF
:1011B000CB019091CC010E948C19823081F028F4EF
:1011C000882341F0813041F00895833059F0843014
:1011D00069F008958D9A01C08D98599A05C08D9A2D
:1011E000599A06C08D9A59988C9A08958D98599855
:1011F0008C98089581E008950C949A080E94E71253
:101200002FEF84E39CE0215080409040E1F700C044
:10121000000087E797E790930108809300080C94FB
:10122000C61BFF920F931F93CF93DF938C01FC019A
:10123000C081D18180916801811113C0828188238E
:1012400049F0CE010E940618F82E682FCE010E94A8
:10125000AB1704C0CE010E94DA17F82EBE018F2D05
:1012600004C0CE010E940618BE010E94C60AEC010D
:10127000B8010E94FC08882309F423C1B801CE01FB
:101280000E94220D882309F41CC1C531FCE5DF074B
:1012900099F50E94FD18282FF801828140910001E4
:1012A00050910101882379F02A7A91E009F490E0C5
:1012B00090934201911102C069E201C065E3CA0145
:1012C0000E94C51A0AC080914201811102C069E2E0
:1012D00001C065E3CA010E94D01A0E94401981E052
:1012E0008093470180934801C801DF91CF911F91FE
:1012F0000F91FF900C94FA08C6318CE5D80708F0DE
:1013000075C0C130ECE5DE0779F4F80182818823ED
:1013100009F4D7C089EC93E00E9430078091FA016C
:1013200081608093FA01CDC0C230FCE5DF0708F48C
:1013300051C0F80182818823B9F20E94261A8111D6
:1013400002C00E940C1A0E943E1A90E09093340250
:1013500080933302FE01E350FC45E231F10530F4A5
:10136000EA5AFF4F809133020C94952A8091330200
:10137000816027C0826025C0846023C0806121C055
:1013800080621FC080641DC080681BC0846088604C
:1013900018C08E7F16C08D7F14C08B7F12C08F7EC9
:1013A00010C08F7D0EC08F7B0CC08F770AC08B7FE3
:1013B000877F07C087FB222720F991E0922790FBC7
:1013C00087F980933302809133020E94421A0E946F
:1013D000E71277C0C115DC4509F081CFF8018281A1
:1013E000882309F46EC00E94FE086BC0C93CECE57E
:1013F000DE0739F5F8018281882361F010924801F7
:101400000E945E1B909346018093450180E20E94FA
:101410000D1057C08091480181110FC08091450186
:10142000909146010E94761B883C910530F487E23A
:101430000E94260F87E20E94E10F80E20E941410B2
:1014400040C0CA3CFCE5DF0738F5C83CDC4509F084
:1014500046CFF8018281882351F0109247010E9403
:101460005E1B909344018093430182E0D0CF809132
:10147000470181110FC080914301909144010E9466
:10148000761B883C910530F486E20E94260F86E2A6
:101490000E94E10F82E0D2CFCC3CECE5DE0731F4D4
:1014A000F8018281882369F080E009C0CD3CDC45E9
:1014B00009F015CFF8018281882319F082E00E949B
:1014C000AD2580E0DF91CF911F910F91FF9008959E
:1014D000CF93DF9361E070E0EB0102C0CC0FDD1F22
:1014E0008A95E2F78C2F0E94391ABE0180E090E0C5
:1014F000DF91CF910C94AE16CF92DF92EF92FF92D4
:101500000F931F9301E010E020E030E068017901C3
:1015100004C0CC0CDD1CEE1CFF1C8A95D2F704C065
:10152000000F111F221F331F6A95D2F70C291D29A6
:101530002E293F29C090C901D090CA01E090CB016B
:10154000F090CC01C022D122E222F322842FC016D7
:10155000D106E206F30641F41F910F91FF90EF9040
:10156000DF90CF900C940D171F910F91FF90EF908B
:10157000DF90CF900C942E170C9491080C94970840
:101580000C94990880E090E0089508959CE0799F7C
:10159000F00111249CE3899FE00DF11D1124E60F59
:1015A000F11DEE0FFF1FEF58FE4F859194910895A6
:1015B000880F991FFC01EF58FE4F85919491089573
:1015C000CF93DF930E94C60A0E94780CEC0181152C
:1015D00020E49207B0F5811540E3940708F0E1C0DC
:1015E000803E9105D0F4803C910508F06FC0883AA8
:1015F000910570F4853A910508F06BC08130910532
:1016000009F472C108F429C1049708F06DC125C11D
:101610008D3B910508F468C020C18F3F910509F00A
:1016200048F4803F910508F0B6C0883E910508F463
:101630005BC113C1811550E2950708F455C19F7035
:10164000ACC0811564E59607D8F4C11583E5D807C9
:1016500008F0E2C0C11521E5D20740F4C11540E50C
:10166000D40708F0A7C0DF70D06A3EC1C11552E5AB
:10167000D50708F0BBC0DC2FCC27C16FD06A34C1BE
:10168000811566E5960750F4C11585E5D80708F081
:10169000D9C0DC2FCC27C46FD06A26C1811528E5BC
:1016A000920708F4DAC0811549E5940708F4D0C020
:1016B00090568115904208F0D0C08D2F8F710E94F6
:1016C000F50CDD27D0628F71D82B0EC1805C91099B
:1016D00064C0853A910509F4C3C0863A910509F0C2
:1016E000C2C0C2E8D0E400C1883A910509F4BEC086
:1016F000893A910509F4BDC08A3A910509F4BCC044
:101700008B3A910509F4BBC08C3A910509F4BAC033
:101710008B3B910509F4B9C08C3B910509F4B8C025
:101720008D3A910509F4B7C0803B910509F4B6C024
:101730008E3A910509F4B5C08F3A910509F4B4C009
:10174000813B910509F4B3C0823B910509F4B2C015
:10175000833B910509F4B1C0843B910509F4B0C005
:10176000853B910509F4AFC0863B910509F4AEC0F5
:10177000873B910509F4ADC0883B910509F4ACC0E5
:10178000893B910509F4ABC08A3B910509F4AAC0D5
:10179000C0E0D4E4A9C0D065A7C00E94D80AEC017B
:1017A000A3C09927D3FF03C0EC01D86C9DC0EC0106
:1017B000D06C9AC02C2F237081E090E002C0880F7B
:1017C000991F2A95E2F79C689E0144E0369527957B
:1017D0004A95E1F72370922BCF70C695C69560E2CB
:1017E000C69FE0011124C82BD92B7EC02C2F269533
:1017F000269580E2289F90011124C370DD2781E0A7
:1018000090E0AC0102C0440F551FCA95E2F7EA010F
:10181000C22BD32BDC6868C02C2F2695269580E23E
:10182000289F90011124C370DD2781E090E0AC0176
:1018300002C0440F551FCA95E2F7EA01C22BD32B11
:10184000DA6852C0CF71DD27DC2FCC27D0624CC0C4
:10185000DC2FCC27C06FD06A47C0C0E0D0E044C0C6
:10186000C1E8D0E441C0C3E8D0E43EC0C2EED4E455
:101870003BC0C9EED4E438C0CAEED4E435C0C5EBF1
:10188000D4E432C0C6EBD4E42FC0C3EBD4E42CC004
:10189000C4EBD4E429C0C7EBD4E426C0CCECD4E438
:1018A00023C0CDECD4E420C0C3E8D5E41DC0CAE811
:1018B000D5E41AC0C2E9D5E417C0C4E9D5E414C020
:1018C000C1E2D6E411C0C3E2D6E40EC0C4E2D6E45D
:1018D0000BC0C5E2D6E408C0C6E2D6E405C0C7E244
:1018E000D6E402C0CAE2D6E4CE01DF91CF910895DA
:1018F0008238910549F1B0F48133910509F458C05B
:1019000048F48932910509F44EC08A32910509F4F0
:1019100054C008958533910509F440C08933910579
:1019200099F00895833E910529F138F4803E9105A0
:1019300091F0823E9105A1F00895863E9105F9F05F
:10194000873E910531F108952091330220FD3AC080
:1019500021FD38C008958091330280FD35C032C02A
:101960008091330282FF32C08091330284FD30C007
:1019700083EE39C08091330282FD28C0F5CF80917B
:10198000330283FF27C08091330284FD21C087EE9C
:101990002AC08091330283FD1DC0F5CF80913302B0
:1019A00085FD1AC01BC08091330285FD17C014C08D
:1019B0008091330286FD14C015C08091330286FDEC
:1019C00011C00EC080EE0FC089E30DC082EE0BC0C7
:1019D00080E009C086EE07C089E205C085E303C048
:1019E0008AE201C081E390E00895CF93C82F0E945E
:1019F0003E1A90E0909334028093330282FF0DC030
:101A00009C2F9871983019F4C77FC46006C09C2F32
:101A10009471943011F4CB7FC86083FF0DC09C2F6C
:101A20009871983119F4C77EC46106C09C2F9471D7
:101A3000943111F4CB7EC86184FDC77E8C2FCF9189
:101A4000089508950F931F93CF93FB0122812111D5
:101A500002C0C1E041C08C01C0915601C11125C036
:101A600086319C45B1F70E94210D81E0809356019B
:101A70000E945E1B9093550180935401109249017E
:101A800010924B0110924A0110924D0110924C019C
:101A900010924F0110924E0110925101109250017C
:101AA000109253011092520117C0809154019091ED
:101AB00055010E94761B883C910558F6909149018A
:101AC000E92FF0E0EE0FFF1FE65BFE4F118300836E
:101AD0009F5F90934901C0E08C2FCF911F910F9190
:101AE000089590935C0180935B010895E0915B0100
:101AF000F0915C01309721F00190F081E02D099484
:101B000080E00895EF92FF920F931F93CF93DF939E
:101B1000E0915B01F0915C013097B1F18C010280A2
:101B2000F381E02D09958091FA0182FF2DC080FF9D
:101B300004C083EE93E00E943007E80110E28DEDCF
:101B4000E82E83E0F82E8091FA0180FF0BC0888197
:101B50001F928F93FF92EF920E94C9070F900F90F0
:101B60000F900F90115021961111EDCF8091FA0135
:101B700080FF0AC08BED93E0DF91CF911F910F9111
:101B8000FF90EF900C943007DF91CF911F910F9150
:101B9000FF90EF900895E0915B01F0915C01309728
:101BA00021F00480F581E02D0994089520915901D8
:101BB00030915A018217930771F090935A018093E4
:101BC0005901E0915B01F0915C01309721F00680B2
:101BD000F781E02D09940895209157013091580123
:101BE0008217930771F09093580180935701E09109
:101BF0005B01F0915C01309721F00084F185E02DCC
:101C00000994089508950C94020E0E94551B0E9499
:101C1000D3070C94D71BCF93C82F8091FA0182FF72
:101C20001EC080FF04C08CEF93E00E9430078091BB
:101C3000FA0180FF0CC01F92CF9387EF93E09F9330
:101C40008F930E94C9070F900F900F900F90809173
:101C5000FA0180FF04C085EF93E00E9430078C2FCB
:101C6000CF910C94C00A4F925F927F928F929F9275
:101C7000AF92BF92CF92DF92EF92FF920F931F939A
:101C8000CF93DF93CDB7DEB72A970FB6F894DEBFB8
:101C90000FBECDBF0E94D5079EE5C92E91E0D92E7B
:101CA00000E010E0AA24A394B12C702E802F0E9493
:101CB0002D084C01F601419051906F01482659269C
:101CC00041145104B1F40F5F1F4F0530110569F73E
:101CD0008FEF89838A831B820E945E1B8160782F2D
:101CE0009D838C8349815A816B818D810E94EC0E8A
:101CF0003AC08091FA0181FD0E94360820E030E070
:101D00007501022E02C0EE0CFF1C0A94E2F7C70117
:101D100084219521892B09F12E837F828E209F209B
:101D200091E0892809F490E098870E945E1B816009
:101D3000782F9A8789874E815F8168858A850E947E
:101D4000EC0E000F111FF801E25AFE4F80819181C5
:101D5000E826F926F182E08206C02F5F3F4F2C3043
:101D6000310571F6B0CF0E94EC1D10915D010E940B
:101D7000760D1817D9F00E94760D80935D012A9692
:101D80000FB6F894DEBF0FBECDBFDF91CF911F918C
:101D90000F91FF90EF90DF90CF90BF90AF909F900A
:101DA0008F907F905F904F900C940B0E2A960FB6F9
:101DB000F894DEBF0FBECDBFDF91CF911F910F9181
:101DC000FF90EF90DF90CF90BF90AF909F908F905B
:101DD0007F905F904F900895CF93DF93CDB7DEB79C
:101DE0002B970FB6F894DEBF0FBECDBF4F83588739
:101DF00069877A878B87DE01119686E0FD01119253
:101E00008A95E9F785E0FE01379601900D928A9553
:101E1000E1F70E94A018882319F082E00E94DB18E5
:101E20000E94731881110E94391949815A816B816E
:101E30007C818D819E810E947F152B960FB6F89430
:101E4000DEBF0FBECDBFDF91CF910895CF93DF935B
:101E50001F92CDB7DEB7882309F4AFC0682F8CEF8F
:101E6000860F813A70F4862F69830E94332169813D
:101E70008111A3C080910001909101010E94C51AB7
:101E80000CC080E2860F883068F4677081E001C082
:101E9000880F6A95EAF70E9400190F90DF91CF91A1
:101EA0000C9440198BE5860F833088F4653A29F04D
:101EB000663A31F083E890E005C081E890E002C026
:101EC00082E890E00F90DF91CF910C94D60D88E5D9
:101ED000860F853108F071C0683A61F1693A69F19D
:101EE0006A3A71F16B3A79F16C3A81F16B3B89F1A5
:101EF0006C3B91F16D3A99F1603BA1F16E3AA9F119
:101F00006F3AB1F1613BB9F1623BC1F1633BC9F199
:101F1000643BD1F1653BD9F1663BE1F1673BE9F107
:101F2000683BF1F1693BF9F16A3B09F43FC080E09D
:101F300090E03EC082EE90E03BC089EE90E038C079
:101F40008AEE90E035C085EB90E032C086EB90E001
:101F50002FC083EB90E02CC084EB90E029C087EB8E
:101F600090E026C08CEC90E023C08DEC90E020C087
:101F700083E891E01DC08AE891E01AC082E991E00F
:101F800017C084E991E014C081E292E011C083E2BD
:101F900092E00EC084E292E00BC085E292E008C0BD
:101FA00086E292E005C087E292E002C08AE292E017
:101FB0000F90DF91CF910C94EC0D0F90DF91CF91AA
:101FC0000895882349F1682F8CEF860F813A38F401
:101FD00080910001909101010E94D01A0CC080E212
:101FE000860F883050F4677081E001C0880F6A95D1
:101FF000EAF70E9406190C9440198BE5860F83308E
:1020000020F480E090E00C94D60D685A653120F4FD
:1020100080E090E00C94EC0D0895882321F00E945C
:1020200000190C9440190895882321F00E94061984
:102030000C94401908954F925F926F927F92AF92E5
:10204000BF92CF92DF92EF92FF920F931F93CF93A5
:10205000DF931F92CDB7DEB77C01A72EFC0105816F
:1020600002950F701281112321F069830E941D19BE
:10207000698169830E94F6186981882381F01123A0
:1020800071F080E2860F883050F082E00E94DB1809
:102090000E94F61891E0B82EB926698101C0B12CD2
:1020A000CA2CC2948FE0C822D12CF601E859FF4F08
:1020B0000C94952A8A2D807F0A2D0F70882311F0A9
:1020C0000295007F1123C1F0002309F4DCC180E2F6
:1020D000860F883010F0611105C0802F69830E943F
:1020E000001904C0802F69830E94101969816983D7
:1020F0000E9440196981C7C1862F69830E94E10F40
:102100006981002309F4E2C180E2860F883010F073
:10211000611104C0802F0E94061903C0802F0E9405
:1021200016190E944019D2C18A2D807F9A2D9F7066
:10213000803211F4892F03C0892F8295807F662316
:1021400019F06130B1F01FC0112349F0002309F4E8
:1021500052C1013009F04FC10E943019B7C10023AC
:1021600019F0013009F4B2C189830E9439198981BB
:1021700048C1112321F0063008F0A8C13CC1053048
:1021800008F0A4C13EC1112351F0002309F433C16A
:10219000F701958190FF77C19F7095832CC1002333
:1021A00009F42FC181C18A2D86958695837090E0B0
:1021B000009719F0019761F089C1112321F0862F52
:1021C0009A2D937002C080E090E00E94D60D8EC1DF
:1021D000112321F0862F9A2D937002C080E090E0A9
:1021E0000E94EC0D83C11123F9F0653F51F0663F69
:1021F00071F0643FA9F480912D0290912E028160CC
:102200000BC080912D0290912E02826005C08091BA
:102210002D0290912E02846090932E0280932D02C5
:10222000862F0E94721C1EC0653F51F0663F71F000
:10223000643FA9F480912D0290912E028E7F0BC0F5
:1022400080912D0290912E028D7F05C080912D02EC
:1022500090912E028B7F90932E0280932D02862FD9
:102260000E94DA1C0E945F1D41C18A2D837009F013
:1022700052C0111137C1862F829586958770880FBD
:10228000880F962F9F70492E512C612C712C082E8F
:1022900004C0440C551C661C771C0A94D2F764FFDA
:1022A00014C00FE010E020E030E0B901A80104C044
:1022B000440F551F661F771F8A95D2F7CB01BA01CD
:1022C000609570958095909503C060E070E0CB01BB
:1022D0002A2D26952695237030E02230310569F0AD
:1022E0002330310589F06429752986299729213001
:1022F000310571F00E94C216F5C06429752986293E
:1023000097290E94D416EEC00E94C216C301B201E2
:102310000E94B016E7C0112319F08A2D817001C008
:102320008695882309F4DEC0862F8295869587706E
:10233000880F880F962F9F70492E512C612C712C7D
:10234000082E04C0440C551C661C771C0A94D2F756
:1023500064FF14C00FE010E020E030E0B901A801F4
:1023600004C0440F551F661F771F8A95D2F7CB0113
:10237000BA01609570958095909503C060E070E01B
:10238000CB012A2D269526952370422F50E042300E
:10239000510569F04330510589F064297529862972
:1023A00097294130510571F00E9486179BC064291E
:1023B0007529862997290E94981794C00E9486172C
:1023C000C301B2010E9474178DC0862F90E0FC01FA
:1023D000E05EF109E531F10508F051C0E858FF4F22
:1023E0000C94952A062F0F708A2D8F71112331F0CE
:1023F0000E940D17802F0E940D1068C00E942E179A
:10240000802F0E94141062C0112341F0053008F0A3
:102410005DC08A2D8F710E94531758C0063008F096
:1024200055C0F7CF112339F08A2D8F710E940D17F7
:102430004DC01123C9F38A2D8F710E942E1746C0FB
:10244000112329F08A2D8F710E94F8163FC00E9437
:10245000F3163CC0112351F01A2D1F71812F0E94D9
:102460000D1763E0812F0E94CB1830C081E00E94DD
:10247000DB18023058F182E00E94DB1827C01123DC
:1024800031F0002389F2862F0E94260F1FC00023FF
:1024900091F2693349F45FEF77EE83E05150704079
:1024A0008040E1F700C00000862F0E94E10F0EC0BF
:1024B0004A2D4F70C7010E94C20A0E94231616C0FF
:1024C0004A2D4F70C7010E94C50A10C098E0C91676
:1024D000D10441F05CF0FAE0CF1AD10822E0C21634
:1024E000D10420F40E94760D0E94C00ABB2001F1A5
:1024F0000E949C1880FD1CC0F70112820E94961851
:102500000E940D17C7010E94A8120E9496180F90F2
:10251000DF91CF911F910F91FF90EF90DF90CF90BF
:10252000BF90AF907F906F905F904F900C942E175C
:102530000F90DF91CF911F910F91FF90EF90DF905F
:10254000CF90BF90AF907F906F905F904F90089525
:102550000F931F93CF93DF93EC01888199812B8197
:102560003C81232BB9F09F3F11F48F3F99F0CE01AE
:102570000E941109882371F0688179818A810E9403
:1025800050188C010E94AA170E94AD16B801CE0106
:102590000E941B10DF91CF911F910F9108950E940F
:1025A0001D190E942D1980910001909101010E9436
:1025B000DB1A0E9440190E947A1E0E945F1D80E073
:1025C00090E00E94D60D80E090E00C94EC0D0E940B
:1025D0000D190C94CF120E944518E92FE295EF7067
:1025E000F0E03297EE30F105B0F4E357FF4F0C9472
:1025F000952A803F91F018F4803E68F40EC0843F25
:1026000051F40BC0803E48F0813F29F406C093FB93
:10261000882780F9089580E0089581E00895CF9398
:10262000DF9300D000D01F92CDB7DEB70F900F9090
:102630000F900F900F90DF91CF910895CF93DF937C
:1026400000D000D000D0CDB7DEB726960FB6F894F4
:10265000DEBF0FBECDBFDF91CF9108951F93CF9303
:10266000DF93C091690116E080916A01C81799F063
:10267000D0E01C9FF0011D9FF00D1124E559FE4F85
:102680004081518162817381848195810E941E13F2
:102690002196C770E9CFDF91CF911F9108954091A6
:1026A0009B0150919C0160919D0170919E018091D0
:1026B0009F019091A0010C941E138091A00182951E
:1026C0008F7009F054C080919D01882309F44FC098
:1026D00080916901A0916A0160919B0170919C01B8
:1026E00040919E0150919F01B6E08A1709F43FC0C6
:1026F00090E041155105C1F17F3F11F46F3FA1F109
:10270000B89FF001B99FF00D1124E559FE4F2181CA
:1027100072132AC02081621327C02281211124C094
:10272000238134812417350710F421503109241BEB
:10273000350B283C3105C0F42091A0012F70206199
:102740002093A00126E0289FF001299FF00D11247D
:10275000E059FE4F80818F70806180838BE991E02A
:102760000E94A8120C942E1301968770BECF089574
:10277000CF92DF92EF92FF920F931F93CF93DF934D
:10278000CDB7DEB762970FB6F894DEBF0FBECDBFF0
:102790008C0185E0F801DE011D9601900D928A956D
:1027A000E1F7D8014C9111965C91119712966C91BA
:1027B00012971396CD90DC90149730919B017091F5
:1027C0009C0180919E0190919F01009709F46BC13B
:1027D0007F3F19F43F3F09F466C1E0909D01EE2070
:1027E00009F4C0C02091A001C816D90628F0F6014E
:1027F000E81BF90BCF0104C0809590958C0D9D1DB1
:10280000FF24F394883C910578F0F12C207F09F0A7
:10281000C6C07C2DD98AC88A89890E940F138BE98A
:1028200091E00E94A812B1C0822F807F09F046C0BB
:10283000751314C0341312C0611110C02F702061C1
:102840002093A0010E944F138BE991E00E94A812EF
:102850008091A001D80115968C932EC0CD2819F136
:102860005F3F11F44F3FF9F0F62E61111CC08091CB
:10287000690120916A0136E0821709F45AC090E09C
:10288000389FF001399FF00D1124E559FE4F7181F9
:10289000571306C07081471303C07281711103C0C2
:1028A00001968770E9CFF62E662309F418C180914E
:1028B000A00181608093A001F12C11C1751308C0A3
:1028C000341306C0611104C08091A001D801C3C0B7
:1028D0004D875E878D859E856A8B0E94EB126A8983
:1028E0008823E1F16623D1F12091A001822F829506
:1028F0008F7090E0029774F080919B0190919C0101
:1029000098878F831986DB86CA862C87CE01079627
:102910000E94A81286E0F801ABE9B1E001900D92A7
:102920008A95E1F70E945D130E944F13FF24F394F0
:10293000D6C04D875E878D859E850E944518292FBC
:1029400022952F7030E0223031050CF0BCC09F7012
:1029500009F0B6C0805E883008F4C1C0C8010E948A
:10296000A812E4CFC816D90608F453C0F601E81B34
:10297000F90BCF01883C910508F450C0F12C7C2D57
:10298000D98AC88A89890E940F13EBE9F1E086E0B1
:10299000DF011D928A95E9F70E944F13A0C07513BD
:1029A00014C0341312C0611110C08091A001F8014D
:1029B0008583C8010E94A81286E0EBE9F1E0DF01FF
:1029C0001D928A95E9F7FE2C8AC04D875E878D851A
:1029D0009E856A8B0E94EB126A89882309F4BECF18
:1029E000662309F4BBCF2091A001822F82958F70BE
:1029F00090E002970CF48ECF80919B0190919C0106
:102A00009A8389831B82DD82CC822E83CE0101963C
:102A10007FCF809590958C0D9D1DACCFF62E6623B3
:102A200009F49CCF75132EC034132CC02091A00143
:102A300020FD1FC0822F82958F70D9F0D801159686
:102A40002C9315978F3049F08F5F982F9295907F38
:102A5000822F8F70892B15968C93C8010E94A81223
:102A600086E0F801ABE9B1E001900D928A95E1F7BB
:102A700093CF86E0F801ABE9B1E001900D928A9521
:102A8000E1F72DC04D875E878D859E850E94EB12F4
:102A9000811140CF8091A00181608093A001C80185
:102AA0000E94A8121CC0662309F458CF4D875E8788
:102AB0008D859E850E94EB12882309F44FCF2ACF83
:102AC000811148CF0CC0243031050CF047CF9F70E6
:102AD00009F440CFF8019581907F09F03BCF8F2D0D
:102AE00062960FB6F894DEBF0FBECDBFDF91CF91D7
:102AF0001F910F91FF90EF90DF90CF9008951F935B
:102B0000CF93DF93CDB7DEB72C970FB6F894DEBF27
:102B10000FBECDBF4F83588769877A878B879C8785
:102B2000CE0107960E94B813882369F08F8198859B
:102B30002A853B85232BF1F19F3F09F063C08F3F2E
:102B400009F060C037C086E0FE013796DE011196BD
:102B500001900D928A95E1F76F817885EA85FB8572
:102B6000309741F17F3F11F46F3F21F120916A01CD
:102B700030E0C9010196877099274091690150E0C2
:102B80008417950709F447C069837A83FD83EC8332
:102B900096E0929FD001939FB00D1124A559BE4F8E
:102BA000FE01319601900D929A95E1F780936A01AA
:102BB0000E942E1316E08091690190916A01891795
:102BC000C1F1189FC001112485599E4F0E94B8136E
:102BD000882379F1E09169011E9FF0011124E559E4
:102BE000FE4F4081518162817381848195810E9471
:102BF0001E138091690190E0019687709927809358
:102C00006901D9CF4F81588569857A858B859C85E7
:102C10000E941E13CFCF0E94E71210926A011092F9
:102C20006901EBE9F1E086E0DF011D928A95E9F7A1
:102C3000C1CF2C960FB6F894DEBF0FBECDBFDF918B
:102C4000CF911F910895EF92FF920F931F93CF930F
:102C5000DF938C01892B09F46CC0F12CEE24E394F2
:102C6000E8012196F8018491843740F4843008F01B
:102C700051C0813081F0823019F15BC0853709F491
:102C800044C0A8F19CE7980F903708F052C08F77A6
:102C90000E94E10F41C00E5F1F4FFE01C49180E210
:102CA0008C0F883048F4C7708E2D01C0880FCA95EC
:102CB000EAF70E94201914C08C2F0E94260F2DC005
:102CC0000E5F1F4FFE01C49180E28C0F883058F4D4
:102CD000C7708E2D01C0880FCA95EAF70E94261989
:102CE0000E9440191AC08C2F0E94E10F16C00E5F7F
:102CF0001F4FFE01C491CC2381F08FE99FE0019723
:102D0000F1F700C00000C150F6CF0E5F1F4FFE016B
:102D1000F49003C00E94260F8E018F2D882309F4A2
:102D20009FCFEFE9FFE03197F1F700C0000081503D
:102D3000F5CFDF91CF911F910F91FF90EF90089504
:102D400008950E94A0166093CD017093CE018093E8
:102D5000CF019093D0010C94CF1208950C94A1163A
:102D60000F931F930091CD011091CE012091CF01BF
:102D70003091D001602B712B822B932B1F910F91DF
:102D80000C94A1160F931F930091CD011091CE01C9
:102D90002091CF013091D0016023712382239323AE
:102DA0001F910F910C94A1160F931F930091CD01C9
:102DB0001091CE012091CF013091D0016027712771
:102DC000822793271F910F910C94A11608950E94BA
:102DD000E6166093C9017093CA018093CB0190936A
:102DE000CC010C94CF1260E070E0CB010C94E7169C
:102DF0000F931F9341E050E060E070E08A019B0177
:102E000004C0000F111F221F331F8A95D2F7C9017A
:102E1000B8011F910F910C94E7160F931F9341E097
:102E200050E060E070E004C0440F551F661F771F3C
:102E30008A95D2F78091C9019091CA01A091CB01E6
:102E4000B091CC018A019B01082B192B2A2B3B2B1B
:102E5000C901B8011F910F910C94E7160F931F93AE
:102E600041E050E060E070E004C0440F551F661F71
:102E7000771F8A95D2F7409550956095709580910F
:102E8000C9019091CA01A091CB01B091CC018A01F6
:102E90009B01082319232A233B23C901B8011F9151
:102EA0000F910C94E7160F931F9341E050E060E000
:102EB00070E004C0440F551F661F771F8A95D2F734
:102EC0008091C9019091CA01A091CB01B091CC0130
:102ED0008A019B01082719272A273B27C901B80126
:102EE0001F910F910C94E7160F931F930091C90146
:102EF0001091CA012091CB013091CC01602B712B34
:102F0000822B932B1F910F910C94E7160F931F9315
:102F10000091C9011091CA012091CB013091CC01DF
:102F200060237123822393231F910F910C94E71642
:102F30000F931F930091C9011091CA012091CB01F9
:102F40003091CC0160277127822793271F910F9121
:102F50000C94E71608952CE0929F800D1124A82F61
:102F6000A695A695A695877051E001C0550F8A9544
:102F7000EAF785E0A89FD001112420E030E070E05E
:102F8000F901EA0FFB1FEF55FE4F4081CB01022EE6
:102F900002C0969587950A94E2F7817099278195EA
:102FA00084278523842780832F5F3F4F2530310579
:102FB00039F708952CE0929F800D1124682F6695B3
:102FC00066956695982F977085E0689FB0011124EB
:102FD00040E050E080E0FA01E60FF71FEF55FE4FAA
:102FE000208130E0092E02C0369527950A94E2F739
:102FF00021703327042E01C0220F0A94EAF7822B96
:103000004F5F5F4F4530510531F70895CF92DF9202
:10301000EF92FF920F931F93CF93DF938C01C09099
:10302000CD01D090CE01E090CF01F090D001809101
:10303000C9019091CA01A091CB01B091CC01C82ADD
:10304000D92AEA2AFB2ACFE1D0E0D701C6010C2E0B
:1030500004C0B695A795979587950A94D2F780FFF7
:1030600006C0B8018C2F0E94E00A019721F4219735
:1030700060F780E001C08C2FDF91CF911F910F91FD
:10308000FF90EF90DF90CF900895CF93DF93EC0106
:103090000E940618BE010E94E00ADF91CF910895B8
:1030A0001F93CF93DF93EB0190916801992321F057
:1030B000CB010E94451813C0882349F0CB010E9420
:1030C0000618182F682FCE010E94AB1704C0CB0141
:1030D0000E94DA17182FBE01812F0E94E00ADF91AB
:1030E000CF911F9108950E945E1B2091D4013091D1
:1030F000D5018217930750F00E945E1B2091D401E6
:103100003091D501821B930B9C010AC00E945E1B6B
:103110002091D4013091D50120953095280F391F89
:1031200081E0243F314008F480E008958091D3018C
:1031300085958595859508958091D301877008952B
:103140000E945E1B2091D1013091D201821793071A
:10315000A8F00E945E1B2091D1013091D201821B08
:10316000930B843F914010F480E013C08091D30111
:1031700082FB882780F991E089270BC00E945E1BA3
:103180002091D1013091D20120953095820F931F6B
:10319000E8CF8170089598E0899F90011124262B33
:1031A0002093D3010E940D170E945E1B9093D201C1
:1031B0008093D10108952091D3018095822380933B
:1031C000D301982F977089F430E0482F082E000C17
:1031D000550B2417350749F08595859585950E94EF
:1031E0002E171092D2011092D10108959091D3011F
:1031F000977081E009F480E008958091F9010895C5
:103200009091F901892B8093F9010895809590910F
:10321000F90189238093F90108951092F901089525
:103220009091F801892B8093F801089580959091F1
:10323000F80189238093F80108951092F801089508
:103240009091F701892B8093F701089580959091D3
:10325000F70189238093F70108951092F7010895EB
:103260008093D6010E945E1B9093D5018093D40178
:1032700008951092D6011092D5011092D4010895AC
:10328000E0910001F09101018091F9018083E091CA
:103290000001F091010190818091F801892B8083D8
:1032A000E0910001F091010190818091F701892B5B
:1032B00080838091D601882321F10E94731888238E
:1032C00071F08091FA0180FF08C08FE094E09F9335
:1032D0008F930E94C9070F900F900E943919E091B7
:1032E0000001F091010190818091D601892B8083AA
:1032F00080910001909101010E94471A81110E9462
:10330000391980910001909101010C94820D9093E4
:103310003701809336010895CF92DF92EF92FF92AA
:103320006C01EE24FF24C114D104E104F10421F066
:10333000C701B60120E101C020E0C72ED82EE92E3A
:10334000FF24C114D104E104F10419F0285FC7017E
:10335000B6016B017C0154E0F694E794D794C794CE
:103360005A95D1F7C114D104E104F10419F02C5F8E
:10337000C701B6016B017C0142E0F694E794D79453
:10338000C7944A95D1F7C114D104E104F10419F0AE
:103390002E5FC701B601DC01CB01B695A7959795C5
:1033A0008795892B8A2B8B2B09F02F5F822FFF901B
:1033B000EF90DF90CF9008958295982F9C7C392FC5
:1033C00036953695282F237344E0249FC00111249D
:1033D000932F982B292F2A7A2695892F8575880F68
:1033E000822B08951F93CF93DF931F92CDB7DEB743
:1033F00099830E94DC19182F9981892F0E94DC196A
:10340000212F30E0322F2227A901482BCA010F902B
:10341000DF91CF911F9108956DEE7EEF80E090E0F7
:103420000E94CF2A60E082E090E00E94BD2A60E026
:1034300083E090E00E94BD2A60E084E090E00E947A
:10344000BD2A60E085E090E00C94BD2A80E090E029
:103450000E94B72A21E08D3E9E4F09F020E0822F86
:10346000089582E090E00C94AF2A83E090E00C9401
:10347000AF2A682F83E090E00C94BD2A84E090E0AE
:103480000C94AF2A682F84E090E00C94BD2AFC01D4
:1034900031969C01205E3F4F80E0919191118F5FAA
:1034A000E217F307D1F708959C01FC0132969FEFD4
:1034B00080E04191461789F09F3F19F4411101C006
:1034C000982F8F5F8E31A9F79F3F39F0F901E90FEF
:1034D000F11D97FDFA95628308950895FC013296D7
:1034E00080962081261301C010823196E817F907D3
:1034F000C1F70895262F2695269526952F3170F42D
:10350000FC01E20FF11D677021E030E001C0220FE5
:103510006A95EAF78181282B218308958091FA0129
:1035200080FF0CC01F926F938FE394E09F938F9363
:103530000E94C9070F900F900F900F900895262FAB
:103540002695269526952F3178F4FC01E20FF11D82
:10355000677021E030E001C0220F6A95EAF72095FC
:1035600081812823218308958091FA0180FF0CC076
:103570001F926F9381E294E09F938F930E94C907FB
:103580000F900F900F900F90089520911201222319
:1035900029F02091330227FD0C947A1A0C94541AC6
:1035A00020911201222329F02091330227FD0C944F
:1035B0009F1A0C946E1AFC01319680961192E817AE
:1035C000F907E1F7089580913902843039F11092BA
:1035D000FB0120E488E190E00FB6F894A895809371
:1035E00060000FBE2093600080E00E94C00A83B795
:1035F000817F846083BF83B7816083BF789488951F
:1036000083B78E7F83BF0FB6F894A8958091600032
:10361000886180936000109260000FBE0895089545
:103620000895CF930E940F1B0E94D5070E94101B84
:10363000C0E08C2F0E942D08892B29F4CF5FC53064
:10364000C1F780E001C081E0CF9108950E94E712A8
:103650000E94760D0C94C00A1F920F920FB60F9223
:1036600011248F939F93AF93BF938091FB0181119E
:1036700013C080912F0290913002A0913102B0913D
:1036800032024196A11DB11D80932F02909330020A
:10369000A0933102B0933202BF91AF919F918F916D
:1036A0000F900FBE0F901F90189582E084BD93E09D
:1036B00095BD9AEF97BD80936E0008952FB7F8944B
:1036C00080912F0290913002A0913102B09132028C
:1036D0002FBF08952FB7F89460912F027091300298
:1036E00080913102909132022FBF0895CF92DF92E4
:1036F000EF92FF920F931F932FB7F89440912F02F0
:103700005091300260913102709132022FBF6A01F4
:103710007B01EE24FF248C0120E030E0C016D106AE
:10372000E206F30610F4415051099A01281B390BA7
:10373000C9011F910F91FF90EF90DF90CF900895F6
:1037400078941F920F920FB60F9211248F939F932C
:10375000AF93BF9380912F0290913002A0913102DC
:10376000B09132020196A11DB11D80932F0290935A
:103770003002A0933102B0933202BF91AF919F917A
:103780008F910F900FBE0F901F90189587E797E7C6
:1037900090930108809300089AE088E10FB6F894AE
:1037A000A895809360000FBE90936000FFCF0E94A9
:1037B000261A811102C00E940C1A0E94311A8093AD
:1037C000FA010E943E1A90E09093340280933302F3
:1037D0000E94351A682F70E080E090E00C94AE16DD
:1037E0008091FE0180FF0BC06091050185E0689F1C
:1037F000B001112475956795759567952BC081FF6C
:1038000009C06091050185E0689FB001112475959C
:10381000679520C082FF07C06091050185E0689F21
:10382000B001112417C09091FF019923D1F060914C
:103830000401961788F72091050185E0289F9001E3
:103840001124929FA001939F500D112470E0CA0192
:103850000E94812A6038710540F46115710539F0C4
:1038600002C065E070E0862F08958FE7089581E03B
:1038700008958091FE0180FF08C06091030170E00F
:10388000759567957595679521C081FF06C0609114
:10389000030170E07595679519C082FF04C06091BF
:1038A000030170E010C09091FF019923C1F0609175
:1038B00002019617A0F780910301899FC00111248E
:1038C00070E00E94812A6038710528F46115710545
:1038D00021F0862F08958FE7089581E0089561E033
:1038E00070E0F4CF803F21F40E94F01B819504C06A
:1038F000813F29F40E94F01B809302020895823FC9
:1039000021F40E94F01B819504C0833F29F40E949A
:10391000F01B809301020895893F19F40E94391C1D
:1039200005C08A3F31F40E94391C819580930302BF
:1039300008958B3F21F40E94391C819504C08C3F6F
:1039400029F40E94391C809304020895843F21F4D5
:1039500080910002816017C0853F21F480910002B0
:10396000826011C0863F21F48091000284600BC008
:10397000873F21F480910002886005C0883F31F4C0
:103980008091000280618093000208958D3F21F4B0
:103990008091FE0181600BC08E3F21F48091FE0179
:1039A000826005C08F3F29F48091FE01846080937E
:1039B000FE010895803F39F48091020287FF6CC0B8
:1039C0001092020269C0813F29F480910202181608
:1039D000BCF362C090910102823F29F497FF5CC062
:1039E0001092010259C0833F19F41916CCF354C048
:1039F000893F41F48091030218160CF04DC01092DB
:103A000003024AC08A3F29F48091030287FF44C021
:103A1000F6CF8B3F39F48091040287FF3DC01092AE
:103A200004023AC08C3F29F4809104021816BCF3BA
:103A300033C0843F21F4809100028E7F17C0853F00
:103A400021F4809100028D7F11C0863F21F4809186
:103A500000028B7F0BC0873F21F480910002877F9B
:103A600005C0883F31F4809100028F7E8093000270
:103A700013C08D3F21F48091FE018E7F0BC08E3FDD
:103A800021F48091FE018D7F05C08F3F29F4809144
:103A9000FE018B7F8093FE018091010281110EC097
:103AA0008091020281110AC080910302811106C037
:103AB00080910402811102C01092FF01089580914B
:103AC000FA0183FF7EC084E894E00E943007809171
:103AD00000021F928F938FE794E09F938F930E9431
:103AE000C9078DE794E00E94300780910102282FDA
:103AF000082E000C330B3F938F938AE794E09F933B
:103B00008F930E94C90788E794E00E943007809154
:103B10000202282F082E000C330B3F938F9385E76A
:103B200094E09F938F930E94C90783E794E00E94DB
:103B3000300780910302282F082E000C330B3F938F
:103B40008F9380E794E09F938F930E94C9078EE63E
:103B500094E00E94300780910402282F082E000C68
:103B6000330B3F938F938BE694E09F938F930E9448
:103B7000C90788E694E00E9430078091FF011F92F8
:103B80008F9385E694E09F938F930E94C90783E605
:103B900094E00E9430078091FE011F928F9380E68F
:103BA00094E09F938F930E94C9078DE594E00E9453
:103BB00030078DB79EB74C960FB6F8949EBF0FBED8
:103BC0008DBF80E092E00E94CB0D0E945E1B90931F
:103BD000FD018093FC0108951F93CF93DF938091A3
:103BE000FC019091FD010E94761BAC019091FF01B8
:103BF000992321F02091060130E006C020910701B1
:103C00008AE0289F900111244217530708F46EC0E0
:103C100080910102C0910202D0910302109104022E
:103C2000811107C0C1115EC0D1115CC011115AC011
:103C30005DC09F3F19F09F5F9093FF01181624F419
:103C40000E94F01B809301028091010287FF05C052
:103C50000E94F01B8195809301021C1624F40E949F
:103C6000F01B809302028091020287FF05C00E9430
:103C7000F01B81958093020240910102442379F068
:103C800030910202332359F025EB4203A0011124A5
:103C9000509301023203C0011124909302021D16B9
:103CA00024F40E94391C809303028091030287FF51
:103CB00005C00E94391C819580930302111624F4DB
:103CC0000E94391C809304028091040287FF05C082
:103CD0000E94391C819580930402DF91CF911F913E
:103CE0000C945F1D9F3F09F0A6CFAECFDF91CF911F
:103CF0001F910895E0E0F2E085E0DF011D928A95D2
:103D0000E9F71092FF011092FE01089587EA96E00C
:103D10000E9430071F9281E08F931F9285E08F935E
:103D200089E596E09F938F930E94C9070F900F90AB
:103D30000F900F900F900F9008958330E9F128F4C1
:103D4000813061F0823009F10895853009F462C054
:103D500008F449C0863009F474C0089580910701C1
:103D6000262F30E0280F311D2F3F310524F4680F36
:103D70006093070103C08FEF8093070180910701D3
:103D80001F928F9382E995E072C080910601262FE1
:103D900030E0280F311D2F3F310524F4680F609368
:103DA000060103C08FEF80930601809106011F92E8
:103DB0008F9380E895E05BC080910501262F30E06D
:103DC000280F311D2F3F310524F4680F6093050142
:103DD00003C08FEF80930501809105011F928F939F
:103DE0008DE695E044C080910401262F30E0280F35
:103DF000311D2F3F310524F4680F6093040103C087
:103E00008FEF80930401809104011F928F9388E5C6
:103E100095E02DC080910301262F30E0280F311D41
:103E20002F3F310524F4680F6093030103C08FEF27
:103E300080930301809103011F928F938FE395E09C
:103E400016C080910201262F30E0280F311D2F3F30
:103E5000310524F4680F6093020103C08FEF809353
:103E60000201809102011F928F9384E295E09F935B
:103E70008F930E94C9070F900F900F900F90089595
:103E8000833081F128F4813059F08230D1F00895E7
:103E9000853009F449C0B8F1863009F456C0089558
:103EA00080910701681720F4861B8093070102C0E8
:103EB00010920701809107011F928F9385E195E091
:103EC00054C080910601681720F4861B8093060178
:103ED00002C010920601809106011F928F9383E029
:103EE00095E043C080910501681720F4861B8093FC
:103EF000050102C010920501809105011F928F9368
:103F000080EF94E032C080910401681720F4861B92
:103F10008093040102C010920401809104011F9259
:103F20008F938BED94E021C080910301681720F4FA
:103F3000861B8093030102C010920301809103014C
:103F40001F928F9382EC94E010C080910201681759
:103F500020F4861B8093020102C01092020180911E
:103F600002011F928F9387EA94E09F938F930E94A0
:103F7000C9070F900F900F900F900895CF93C82FFF
:103F80001F928F938CEA97E09F938F930E94C907AB
:103F900081E090E0A0E0B0E0BC01CD0104C0660F7C
:103FA000771F881F991FCA95D2F70E94AE160F90EF
:103FB0000F900F900F90CF910C94E712CF93873210
:103FC000A8F58E3108F032C1803109F49FC0F8F4B1
:103FD000873009F465C0A8F4863009F02DC18091BE
:103FE000FA01817F8E7F8093FA0182E499E00E943A
:103FF000300783EA9BE00E94300781E0809306024D
:104000004DC08B30F1F18E3009F46CC015C1863192
:1040100009F4B0C020F4813109F4F0C00DC1893138
:1040200009F491C08B3109F449C006C1883349F1C4
:1040300050F4893209F4FCC0853309F4F9C08732A1
:1040400009F4F6C0F9C0833409F4F2C028F48A33C5
:1040500008F4F2C08953EDC0883409F0EDC00E9425
:10406000E71287E89BE00E9430072FEF83ED90E393
:10407000215080409040E1F700C000000E94C61B24
:104080000DC089E699E05CC08EE69BE00E94300797
:104090008091FA01897F877F8093FA01C1E0D1C0C6
:1040A0008091FA01C82FC095C170C0FB80F9809340
:1040B000FA01CC2349F38BE79BE0B2C09091FA015F
:1040C00091FBCC27C0F981E0C827892FC0FB81F97B
:1040D0008093FA01CC2319F081E69BE027C083E5A9
:1040E0009BE02EC09091FA0192FBCC27C0F981E0B1
:1040F000C827892FC0FB82F98093FA01CC2319F0DD
:1041000084E49BE013C084E39BE01AC09091FA0121
:1041100093FBCC27C0F981E0C827892FC0FB83F926
:104120008093FA01CC2351F088E29BE00E94300793
:104130008091FA0181608093FA0183C08BE19BE05A
:104140000E943007ABCF83E399E00E94300787E0FD
:1041500099E00E94300780ED98E00E9430078BE9DB
:1041600098E00E94300780E698E00E94300782E3E2
:1041700098E0E6CF84E298E00E9430070E94760D36
:104180001F928F938AE098E09F938F930E94C907B4
:10419000809112011F928F9383EF97E09F938F93EB
:1041A0000E94C90780912B021F928F9380EE97E0A7
:1041B0009F938F930E94C9078091330287FB8827C2
:1041C00080F91F928F9388EC97E09F938F930E94C2
:1041D000C9070E946A1B9F938F937F936F9381EB14
:1041E00097E09F938F930E94C9078DB79EB746961D
:1041F0000FB6F8949EBF0FBE8DBF50CF0E94E7123E
:104200009091330297FBCC27C0F981E0C827892F12
:10421000C0FB87F980933302CC2329F081E19BE036
:104220000E9430070EC086E09BE08ACF8D5101C00E
:1042300080E00E94BE1F32CF84E09BE00E943007E6
:10424000C0E08C2FCF91089580E0089580E008951C
:104250008E518A3030F4E82FF0E0ED5EFE4F808121
:10426000089580E00895CF93C82F80910602813091
:1042700071F020F0823009F44BC03FC1E0910001A1
:10428000F09101018081823209F039C107C0E091CB
:104290000001F09101018081823261F48C2F0E9433
:1042A0002421811104C08C2F0E94DE1F2FC081E0C9
:1042B00090E02CC08C2F0E942621811126C0C43191
:1042C000E1F070F4CB3081F0C031D1F40E94861E51
:1042D00084EA97E00E94300782E08093060215C0CE
:1042E000C93259F0C83361F482E499E00E94300782
:1042F00088EA97E00E94300708C01092060201C1C8
:1043000082EA97E00E943007FCC081E08170FBC028
:10431000C43228F5CE3108F0C1C0CB30A1F1D0F4C1
:10432000C73009F0D0C08EE18093070182E380930B
:1043300006018AE08093050184E18093040188E00E
:104340008093030188E28093020188E496E00E9452
:104350003007BCC0C33149F1C431C1F0B4C0CB3463
:1043600009F4A6C028F4C93289F0C83361F0ABC0A3
:10437000C13509F49BC0C23509F496C0CE3409F0AA
:10438000A2C06AE09BC00E94861EA0C08091050268
:10439000882319F01092050299C085E596E00E94E5
:1043A000300781E080930602AEC08FE296E00E9463
:1043B00030078DE196E00E943007809107011F923F
:1043C0008F938AE196E09F938F930E94C90788E1BB
:1043D00096E00E94300786E096E00E9430078091C8
:1043E00006011F928F9383E096E09F938F930E9424
:1043F000C90781E096E00E94300782EF95E00E94B5
:104400003007809105011F928F938FEE95E09F9367
:104410008F930E94C9078DEE95E00E9430078CEDC6
:1044200095E00E943007809104011F928F9389EDDF
:1044300095E09F938F930E94C90787ED95E00E94B6
:10444000300782EC95E00E943007809103011F92B3
:104450008F938FEB95E09F938F930E94C9078DEB0D
:1044600095E00E94300786EA95E00E94300780912F
:1044700002011F928F9383EA95E09F938F930E948E
:10448000C90781EA95E00E9430078DB79EB748962C
:104490000FB6F8949EBF0FBE8DBF18C08C2F0E9420
:1044A00028218093050212C061E003C061E006C0CC
:1044B0006AE0809105020E949D1E08C0809105025D
:1044C0000E94401F03C086E496E013C0809105025D
:1044D000882369F01F928F9380E496E09F938F93D7
:1044E0000E94C9070F900F900F900F9004C08DE3AA
:1044F00096E00E94300781E006C01092060280E03C
:1045000002C080E003CFCF91089580912A020895E0
:104510009FB7F894109209029FBF9091390294308E
:1045200009F057C09091E9009F703091EC00232F63
:10453000217030FD20E8922B24E02093E9002091A7
:10454000EB0020FF43C02091EE0027FF3FC02091E9
:104550000702222321F02091E80025FF37C01092A6
:10456000070226E03091E80035FD15C03091390290
:10457000343061F53091EB0035FD28C0215021F435
:1045800081E08093070222C0EFE9FFE03197F1F765
:1045900000C00000E7CF8093F1008091E80085FD26
:1045A0000AC08091E80080FFFCCF8091E8008E7700
:1045B0008093E80006C08FB7F89421E020930902A9
:1045C0008FBF9F709093E90080E008959F70909353
:1045D000E9008FEF08950F931F93CF93DF9300D0DF
:1045E0001F92CDB7DEB78C010E94BD25823011F03D
:1045F000843019F593E099831B830A839093E90033
:104600008FEF9091E800815095FD06C095ED9A9549
:10461000F1F700008111F5CF8091E80085FF0DC012
:1046200040E050E063E070E0CE0101960E94DA25A0
:104630008091E8008E778093E8000F900F900F90A4
:10464000DF91CF911F910F910895CF93DF9300D009
:104650001F92CDB7DEB720913902243031F522E028
:104660002983805891099B838A8383E08093E900A2
:104670008FEF9091E800815095FD06C095ED9A95D9
:10468000F1F700008111F5CF8091E80085FF0DC0A2
:1046900040E050E063E070E0CE0101960E94DA2530
:1046A0008091E8008E778093E8000F900F900F9034
:1046B000DF91CF910895CF93DF93EC010E94BD2548
:1046C000823011F08430F9F482E08093E9009FEFAA
:1046D0008091E800915085FD06C085ED8A95F1F73F
:1046E00000009111F5CF8091E80085FF0CC040E0FB
:1046F00050E065E070E0CE010E94DA258091E8008C
:104700008E778093E800DF91CF910895CF93DF9368
:10471000EC010E94BD25823019F0843009F047C0B9
:10472000809112018823E1F08091330287FF18C045
:1047300085E08093E9008FEF9091E800815095FD2E
:1047400006C095E19A95F1F700008111F5CF8091AF
:10475000E80085FF2CC040E050E060E270E017C048
:1047600081E08093E9008FEF9091E800815095FD02
:1047700006C095ED9A95F1F700008111F5CF809173
:10478000E80085FF14C040E050E068E070E0CE0132
:104790000E94DA258091E8008E778093E80080E21D
:1047A000FE01AAE0B2E001900D928A95E1F7DF9157
:1047B000CF9108958CEC9BE00E94300780913802E5
:1047C000811109C00E946F270E94CC278091E200CE
:1047D00084608093E200089588EC9BE00E9430079B
:1047E00010923802089584EC9BE00C94300780EC22
:1047F0009BE00C9430078CEB9BE00E9430070C94FC
:10480000261B209108022F5F822F62E30E94752AE7
:10481000992319F0209308020895109208028091BC
:104820000902882371F180913902843041F5809129
:10483000E9008F702091EC00922F917020FD90E89C
:10484000892B94E09093E9009091EB0090FF14C0C5
:104850009091EE0097FF10C09091E80095FF03C083
:104860001092F100F9CF9091E80090FF05C090916F
:10487000E8009E779093E8008F708093E900109293
:104880000902089542E061EC81E00E94E92642E0DD
:1048900061EC82E00E94E92642E061EC83E00E9444
:1048A000E92642E261EC84E00E94E92642E261EC02
:1048B00085E00C94E92680913B02833009F455C0D1
:1048C00030F4813071F0823009F48EC008958A305E
:1048D00009F47AC08B3009F460C0893009F09CC0BB
:1048E00020C080913A02813A09F096C08091E80098
:1048F000877F8093E80080913E0290913F02892B50
:1049000021F460E28AE092E003C060E080E090E0A1
:1049100070E00E9425268091E8008B778093E80064
:10492000089580913A02813209F076C080913E026A
:1049300090913F02009719F0049709F06DC08091A3
:10494000E800877F8093E8008091E80082FD05C041
:10495000809139028111F8CF5FC08091F10080937E
:104960002A028091E8008B7753C080913A02813A05
:1049700009F052C080913E0290913F02892B09F0CC
:104980004BC08091E800877F8093E8008091E80029
:1049900080FFFCCF8091120136C080913A028132B3
:1049A000D9F580913E0290913F02892BA9F5809123
:1049B000E800877F8093E8000E941E2780913C02D8
:1049C000809312010C94E71280913A02813221F512
:1049D0008091E800877F8093E8000E941E278091E5
:1049E0003D0280932B02089580913A02813AA1F40E
:1049F0008091E800877F8093E8008091E80080FF45
:104A0000FCCF80912B028093F1008091E8008E779B
:104A10008093E8000C941E27089584B7877F84BF95
:104A20000FB6F894A895809160008861809360002B
:104A3000109260000FBE80E88093610010926100C8
:104A40000E94030E0E946F270E94CC278091E200F3
:104A500084608093E20088E892E20E94871978944B
:104A60000E945A2A0E94050E88E091E00E94710D72
:104A70008BEA9BE00E94300780913902853089F4EF
:104A800087EA9BE00E9430070E94E31A8091370278
:104A9000882391F30E94111B882371F30E94C4257F
:104AA000EBCF0E94330EE8CF292F33272330310577
:104AB000C9F064F42130310581F02230310509F06C
:104AC00043C08DE890E028EF3BE042C02132310541
:104AD000F1F02232310541F137C082E190E025E862
:104AE0003CE036C099278130910541F08230910534
:104AF00041F0892B49F5E4EFFBE005C0E2EEFBE075
:104B000002C0E0EDFBE0849190E09F0121C06530A0
:104B10007105D0F4660F771FFB01E45DFE4F208125
:104B2000318189E090E014C06530710568F4FB01C3
:104B3000EE0FFF1FEE5DFE4F20813181FB01E35E32
:104B4000FE4F808190E004C080E090E020E030E003
:104B5000FA013183208308950895CF93C82F0E94CE
:104B6000AC25C0932C02CF910895809139028430F6
:104B700011F081E0089582E0089580912C02811166
:104B800002C00C94B525089580E189BD82E189BDFC
:104B900009B400FEFDCF8091D8008F7D8093D800AE
:104BA0008091E00082608093E0008091E00081FDD0
:104BB000FCCF0895CF92DF92EF92FF920F931F9355
:104BC000CF93DF93EC018B016A010E943D27811195
:104BD00033C0C114D10439F0F60180819181081BE2
:104BE000190BC80FD91FE12CF12C0115110519F172
:104BF0008091E80085FD16C08091E8008E77809353
:104C0000E800C114D10449F0F60180819181E80ED9
:104C1000F91EF182E08285E00FC00E943D278823C3
:104C200021F30AC089918093F10001501109FFEF2F
:104C3000EF1AFF0ADACF80E0DF91CF911F910F9139
:104C4000FF90EF90DF90CF90089520914002309137
:104C500041022617370748F06115710539F4209194
:104C6000E8002E772093E80001C0B90140E061150B
:104C70007105A9F120913902222309F443C025309E
:104C800009F442C02091E80023FD40C02091E800D3
:104C900022FD32C02091E80020FFE9CF4091F300CF
:104CA0002091F20030E0342BFC01CF016115710539
:104CB00059F02830310540F481918093F100615022
:104CC00071092F5F3F4FF1CF41E02830310509F0E6
:104CD00040E02091E8002E772093E800C8CF4111F2
:104CE000C9CF0AC080913902882361F0853061F014
:104CF0008091E80083FD0AC08091E80082FFF2CF36
:104D000080E0089582E0089583E0089581E00895A9
:104D100020914002309141022617370748F0611573
:104D2000710539F42091E8002E772093E80001C046
:104D3000B901FC0120E06115710591F18091390202
:104D4000882309F440C0853009F43FC08091E80011
:104D500083FD3DC08091E80082FD2FC08091E80076
:104D600080FFE9CF2091F3008091F20090E0922B38
:104D70006115710559F08830910540F42491209314
:104D8000F1003196615071090196F2CF21E0089748
:104D900009F020E08091E8008E778093E800CBCF87
:104DA0002111CCCF0AC080913902882361F085306F
:104DB00061F08091E80083FD0AC08091E80082FFE5
:104DC000F2CF80E0089582E0089583E0089581E0C5
:104DD0000895982F973058F59093E900981739F077
:104DE0007091EC002091ED005091F00003C0242F51
:104DF000762F50E021FF19C03091EB003E7F3093B9
:104E0000EB003091ED003D7F3093ED003091EB00F1
:104E100031603093EB007093EC002093ED005093E1
:104E2000F0002091EE0027FF07C09F5FD3CF8F7067
:104E30008093E90081E0089580E0089580913A022E
:104E400087FF11C08091E80082FD05C08091390282
:104E50008111F8CF11C08091E8008B770BC0809151
:104E60003902882349F08091E80080FFF8CF8091D3
:104E7000E8008E778093E80008952091E400309157
:104E8000E50095E64091EC00842F817040FF22C040
:104E90008091E80080FD1CC080913902882391F048
:104EA000853091F08091EB0085FD10C04091E400C9
:104EB0005091E5004217530729F39A01915011F7D9
:104EC00084E0089582E0089583E0089581E00895E4
:104ED00080E008954091E80042FFDECF08950E94EF
:104EE000DD270E94E527E0EEF0E08081816080838D
:104EF000E8EDF0E080818F77808319BCA7EDB0E00A
:104F00008C918E7F8C9380818F7E8083109238026B
:104F100008950F931F93CF93DF930E94DD270E9484
:104F2000E527C8EDD0E088818F7788838881806805
:104F3000888388818F7D888319BC109239021092F2
:104F40003502109237021092360200EE10E0F8019E
:104F500080818B7F808388818160888342E060E0EC
:104F600080E00E94E926E1EEF0E080818E7F808380
:104F7000E2EEF0E0808181608083808188608083C0
:104F8000F80180818E7F8083888180618883DF91B2
:104F9000CF911F910F910895E8EDF0E080818F7E11
:104FA0008083E7EDF0E080818160808384E082BFD0
:104FB00081E0809338020C948927E8EDF0E080814D
:104FC0008E7F80831092E20008951092DA00109292
:104FD000E10008951F920F920FB60F9211242F93A4
:104FE0003F934F935F936F937F938F939F93AF9371
:104FF000BF93EF93FF938091E10082FF0BC08091FC
:10500000E20082FF07C08091E1008B7F8093E10086
:105010000E9401248091DA0080FF1FC08091D80097
:1050200080FF1BC08091DA008E7F8093DA00809130
:10503000D90080FF0DC080E189BD82E189BD09B43E
:1050400000FEFDCF81E0809339020E94DA2305C083
:1050500019BC109239020E94EC238091E10080FF7C
:1050600019C08091E20080FF15C08091E2008E7F20
:105070008093E2008091E20080618093E200809161
:10508000D80080628093D80019BC85E080933902F3
:105090000E94F7238091E10084FF30C08091E200FC
:1050A00084FF2CC080E189BD82E189BD09B400FE86
:1050B000FDCF8091D8008F7D8093D8008091E10052
:1050C0008F7E8093E1008091E2008F7E8093E200EA
:1050D0008091E20081608093E20080913502882314
:1050E00011F084E007C08091E30087FD02C081E0F9
:1050F00001C083E0809339020E94FB238091E1008C
:1051000083FF29C08091E20083FF25C08091E100E8
:10511000877F8093E10082E080933902109235020C
:105120008091E1008E7F8093E1008091E2008E7F8C
:105130008093E2008091E20080618093E20042E08F
:1051400060E080E00E94E9268091F0008860809312
:10515000F0000E94F323FF91EF91BF91AF919F91D7
:105160008F917F916F915F914F913F912F910F9010
:105170000FBE0F901F9018951F920F920FB60F92AF
:1051800011242F933F934F935F936F937F938F934C
:105190009F93AF93BF93CF93DF93EF93FF93C09110
:1051A000E900CF708091EC00D82FD17080FDD0E85D
:1051B0001092E9008091F000877F8093F00078944E
:1051C0000E9400291092E9008091F000886080938D
:1051D000F000CD2BCF70C093E900FF91EF91DF91EC
:1051E000CF91BF91AF919F918F917F916F915F917F
:1051F0004F913F912F910F900FBE0F901F901895D8
:105200001F93CF93DF93CDB7DEB7AA970FB6F8946D
:10521000DEBF0FBECDBFEAE3F2E088E08E0F9091D3
:10522000F10091938E13FBCF0E945B248091E800E4
:1052300083FF28C180913A0290913B02492F50E0B0
:105240004A30510508F01EC1FA01E556FF4F0C9493
:10525000952A803821F0823809F014C108C0809165
:10526000360290913702992389F082600FC08091B5
:105270003E028F70873008F005C18093E90080916D
:10528000EB0085FB882780F91092E9009091E800F7
:10529000977F9093E8008093F1001092F100D0C0C6
:1052A000282F2D7F09F0EEC0882319F0823061F09D
:1052B000E9C080913C02813009F0E4C0933009F0EC
:1052C00080E0809337022EC080913C0281112AC079
:1052D00080913E028F702FEF280F263008F0D2C049
:1052E0008093E9002091EB0020FF1CC0933021F453
:1052F0008091EB00806214C09091EB0090619093DC
:10530000EB0021E030E0A90102C0440F551F8A954F
:10531000E2F74093EA001092EA008091EB00886087
:105320008093EB001092E9008091E800877F8093E2
:10533000E8000E941E27A6C08111A4C010913C0263
:105340001F778091E3008078812B8093E300809128
:10535000E800877F8093E8000E941E278091E80084
:1053600080FFFCCF8091E30080688093E3001111FF
:1053700002C082E001C083E08093390283C080587C
:10538000823008F07FC080913C0290913D028C3DBC
:1053900053E0950779F583E08A838AE289834FB7E2
:1053A000F894DE01139620E03EE051E2E32FF0E0B6
:1053B00050935700E49120FF03C0E295EF703F5FE8
:1053C000EF708E2F90E0EA3010F0C79601C0C096C3
:1053D0008D939D932F5F243149F74FBF8091E80053
:1053E000877F8093E8006AE270E0CE0101960E9418
:1053F000252615C060913E0270913F02AE014F5FBD
:105400005F4F0E945425BC01892BE1F19091E80087
:10541000977F9093E80089819A810E9488268091E5
:10542000E8008B778093E8002DC0803859F5809193
:10543000E800877F8093E800809135028093F10037
:105440008091E8008E7773CF81111CC090913C024F
:105450009230C0F48091E800877F8093E8009093B9
:1054600035020E941E2780913502811106C080916D
:10547000E30087FD02C081E001C084E0809339022F
:105480000E9442248091E80083FF0AC08091E800D6
:10549000877F8093E8008091EB0080628093EB002F
:1054A000AA960FB6F894DEBF0FBECDBFDF91CF91A5
:1054B0001F910895CF93809139028823A1F0C09164
:1054C000E900CF709091EC00892F817090FD80E809
:1054D000C82B1092E9008091E80083FD0E9400290A
:1054E000CF70C093E900CF910895991B79E004C073
:1054F000991F961708F0961B881F7A95C9F7809513
:10550000089597FB072E16F4009407D077FD09D075
:105510000E949B2A07FC05D03EF4909581959F4FF1
:105520000895709561957F4F0895EE0FFF1F0590C8
:10553000F491E02D0994AA1BBB1B51E107C0AA1FDF
:10554000BB1FA617B70710F0A61BB70B881F991F24
:105550005A95A9F780959095BC01CD010895F999C8
:10556000FECF92BD81BDF89A992780B50895A8E134
:10557000B0E042E050E00C94D72A262FF999FECFF4
:1055800092BD81BDF89A019700B4021639F01FBA96
:1055900020BD0FB6F894FA9AF99A0FBE08950196B5
:1055A000272F0E94BE2A0C94BD2ADC01CB01FC01EE
:1055B000F999FECF06C0F2BDE1BDF89A319600B46C
:0E55C0000D9241505040B8F70895F894FFCF77
:1055CE00D7012808140A321E852286235B23252341
:1055DE00EB220101020304050607080900404D36BF
:1055EE002239750D280DF20CD00C970C0A0C230CD9
:0655FE003C0C550C750C7D
:00000001FF
